:020000040800F2
:100000000080002079920008A18C0008A38C0008D1
:10001000A58C0008A78C0008A98C0008000000002F
:10002000000000000000000000000000AB8C000891
:10003000AD8C000800000000C1920008AF8C0008E1
:10004000C1920008C1920008C1920008C192000844
:10005000C1920008C1920008C1920008C192000834
:10006000C1920008D18C0008E58C0008318D000891
:10007000C1920008C1920008C1920008C192000814
:10008000C1920008C1920008C1920008C192000804
:10009000C1920008C1920008C1920008C1920008F4
:1000A000C1920008C1920008C1920008C1920008E4
:1000B000C1920008C1920008C19200085945000889
:1000C00009460008C1920008C1920008C1920008C8
:1000D000C1920008C1920008F98C0008C192000882
:1000E000C1920008C1920008C1920008C1920008A4
:1000F000C1920008C1920008C1920008C192000894
:10010000C1920008C1920008C1920008B18C000899
:10011000758D0008C1920008BD810008C1920008D9
:10012000C1920008C1920008C1920008C192000863
:10013000C1920008C1920008C1920008C192000853
:08014000C1920008C192000801
:10020000000000000000000000025531442D433082
:100210003138302D45000001010131302000280027
:1003000010B5054C237833B9044B13B10448AFF34F
:1003100000800123237010BDB803002000000000FE
:1003200008A5000808B5034B1BB103490348AFF308
:10033000008008BD00000000BC03002008A50008E4
:1003400081F0004102E000BF83F0004330B54FEA86
:1003500041044FEA430594EA050F08BF90EA020FF3
:100360001FBF54EA000C55EA020C7FEA645C7FEA86
:10037000655C00F0E2804FEA5454D4EB5555B8BFA9
:100380006D420CDD2C4480EA020281EA030382EA1A
:10039000000083EA010180EA020281EA0303362DAC
:1003A00088BF30BD11F0004F4FEA01314FF4801C7F
:1003B0004CEA113102D0404261EB410113F0004F91
:1003C0004FEA03334CEA133302D0524263EB430348
:1003D00094EA050F00F0A780A4F10104D5F1200EE6
:1003E0000DDB02FA0EFC22FA05F2801841F1000141
:1003F00003FA0EF2801843FA05F359410EE0A5F115
:1004000020050EF1200E012A03FA0EFC28BF4CF045
:10041000020C43FA05F3C01851EBE37101F00045FB
:1004200007D54FF0000EDCF1000C7EEB00006EEB08
:100430000101B1F5801F1BD3B1F5001F0CD3490892
:100440005FEA30004FEA3C0C04F101044FEA4452E9
:1004500012F5800F80F09A80BCF1004F08BF5FEA70
:10046000500C50F1000041EB045141EA050130BD50
:100470005FEA4C0C404141EB0101013C28BFB1F562
:10048000801FE9D291F0000F04BF01460020B1FAAD
:1004900081F308BF2033A3F10B03B3F120020CDA80
:1004A0000C3208DD02F1140CC2F10C0201FA0CF05E
:1004B00021FA02F10CE002F11402D8BFC2F1200CC3
:1004C00001FA02F120FA0CFCDCBF41EA0C01904079
:1004D000E41AA2BF01EB0451294330BD6FEA0404C2
:1004E0001F3C1CDA0C340EDC04F11404C4F12002AD
:1004F00020FA04F001FA02F340EA030021FA04F3BF
:1005000045EA030130BDC4F10C04C4F1200220FA15
:1005100002F001FA04F340EA0300294630BD21FA53
:1005200004F0294630BD94F0000F83F4801306BF19
:1005300081F480110134013D4EE77FEA645C18BF0D
:100540007FEA655C29D094EA050F08BF90EA020FA4
:1005500005D054EA000C04BF1946104630BD91EA9C
:10056000030F1EBF0021002030BD5FEA545C05D19F
:100570004000494128BF41F0004130BD14F58004DE
:100580003CBF01F5801130BD01F0004545F0FE4152
:1005900041F470014FF0000030BD7FEA645C1ABF87
:1005A000194610467FEA655C1CBF0B46024650EABE
:1005B000013406BF52EA033591EA030F41F40021EA
:1005C00030BD00BF90F0000F04BF0021704730B570
:1005D0004FF4806404F132044FF000054FF0000145
:1005E00050E700BF90F0000F04BF0021704730B506
:1005F0004FF4806404F1320410F0004548BF4042DB
:100600004FF000013EE700BF42004FEAE2014FEA2F
:1006100031014FEA02701FBF12F07F4393F07F4F0A
:1006200081F06051704732F07F4208BF704793F00D
:100630007F4F04BF41F40021704730B54FF4607420
:1006400001F0004521F000411CE700BF50EA010223
:1006500008BF704730B54FF000050AE050EA0102CC
:1006600008BF704730B511F0004502D5404261EB3C
:1006700041014FF4806404F132045FEA915C3FF47D
:10068000D8AE4FF003025FEADC0C18BF03325FEA1A
:10069000DC0C18BF033202EBDC02C2F1200300FACB
:1006A00003FC20FA02F001FA03FE40EA0E0021FAF0
:1006B00002F11444BDE600BF70B54FF0FF0C4CF4DE
:1006C000E06C1CEA11541DBF1CEA135594EA0C0F90
:1006D00095EA0C0F00F0DEF82C4481EA030621EACB
:1006E0004C5123EA4C5350EA013518BF52EA033506
:1006F00041F4801143F4801338D0A0FB02CE4FF0B8
:100700000005E1FB02E506F00042E0FB03E54FF0E7
:100710000006E1FB03569CF0000F18BF4EF0010EDF
:10072000A4F1FF04B6F5007F64F5407404D25FEADB
:100730004E0E6D4146EB060642EAC62141EA55518E
:100740004FEAC52040EA5E504FEACE2EB4F1FD0CD0
:1007500088BFBCF5E06F1ED8BEF1004F08BF5FEA4E
:10076000500E50F1000041EB045170BD06F0004600
:1007700046EA010140EA020081EA0301B4EB5C04AD
:10078000C2BFD4EB0C0541EA045170BD41F48011A5
:100790004FF0000E013C00F3AB8014F1360FDEBFCA
:1007A000002001F0004170BDC4F10004203C35DAA6
:1007B0000C341BDC04F11404C4F1200500FA05F329
:1007C00020FA04F001FA05F240EA020001F00042CA
:1007D00021F0004110EBD37021FA04F642EB060140
:1007E0005EEA430E08BF20EAD37070BDC4F10C046A
:1007F000C4F1200500FA04F320FA05F001FA04F22E
:1008000040EA020001F0004110EBD37041F1000119
:100810005EEA430E08BF20EAD37070BDC4F1200524
:1008200000FA05F24EEA020E20FA04F301FA05F28C
:1008300043EA020321FA04F001F0004121FA04F234
:1008400020EA020000EBD3705EEA430E08BF20EA04
:10085000D37070BD94F0000F0FD101F0004640003E
:1008600041EB010111F4801F08BF013CF7D041EAC0
:10087000060195F0000F18BF704703F000465200C4
:1008800043EB030313F4801F08BF013DF7D043EA95
:100890000603704794EA0C0F0CEA135518BF95EA4B
:1008A0000C0F0CD050EA410618BF52EA4306D1D1D2
:1008B00081EA030101F000414FF0000070BD50EAF1
:1008C000410606BF1046194652EA430619D094EA7B
:1008D0000C0F02D150EA013613D195EA0C0F05D165
:1008E00052EA03361CBF104619460AD181EA0301B9
:1008F00001F0004141F0FE4141F470014FF0000071
:1009000070BD41F0FE4141F4780170BD70B54FF00B
:10091000FF0C4CF4E06C1CEA11541DBF1CEA13558B
:1009200094EA0C0F95EA0C0F00F0A7F8A4EB05046D
:1009300081EA030E52EA03354FEA013100F0888064
:100940004FEA03334FF0805545EA131343EA12632D
:100950004FEA022245EA111545EA10654FEA0026E2
:100960000EF000419D4208BF964244F1FD0404F59B
:10097000407402D25B084FEA3202B61A65EB0305F7
:100980005B084FEA32024FF480104FF4002CB6EBB4
:10099000020E75EB030E22BFB61A754640EA0C0034
:1009A0005B084FEA3202B6EB020E75EB030E22BF74
:1009B000B61A754640EA5C005B084FEA3202B6EBB5
:1009C000020E75EB030E22BFB61A754640EA9C0074
:1009D0005B084FEA3202B6EB020E75EB030E22BF44
:1009E000B61A754640EADC0055EA060E18D04FEA02
:1009F000051545EA16754FEA06164FEAC30343EAA2
:100A000052734FEAC2025FEA1C1CC0D111F4801F6E
:100A10000BD141EA00014FF000004FF0004CB6E767
:100A200011F4801F04BF01430020B4F1FD0C88BF06
:100A3000BCF5E06F3FF6AFAEB5EB030C04BFB6EB11
:100A4000020C5FEA500C50F1000041EB045170BD04
:100A50000EF0004E4EEA113114EB5C04C2BFD4EB31
:100A60000C0541EA045170BD41F480114FF0000EB5
:100A7000013C90E645EA060E8DE60CEA135594EA31
:100A80000C0F08BF95EA0C0F3FF43BAF94EA0C0F34
:100A90000AD150EA01347FF434AF95EA0C0F7FF4A9
:100AA00025AF104619462CE795EA0C0F06D152EAFD
:100AB00003353FF4FDAE1046194622E750EA4106E1
:100AC00018BF52EA43067FF4C5AE50EA41047FF4F2
:100AD0000DAF52EA43057FF4EBAE12E74A0011D2A4
:100AE00012F5001211D20DD56FF47873B3EB625288
:100AF0000ED44FEAC12343F0004343EA505323FA94
:100B000002F070474FF00000704750EA013002D108
:100B10004FF0FF3070474FF000007047014B052247
:100B20001A70704728040020174B1B7EDBB2012B84
:100B300011D0164BB3F85030154A1288934218D092
:100B4000134A1380134B02221A700F4B00221A769D
:100B50000122DA7570470D4BB3F850200C4B1A8008
:100B60000C4B02221A70084B00221A760122DA7509
:100B70007047054B00221A731A755A7502221A70B3
:100B8000044B05221A7070472C04002068130020C3
:100B9000200700202804002030B5002027E0C0F105
:100BA00013021A4902EBC202930020330B44C0F136
:100BB000120202EBC2024FEA820C0CF1200C6144DB
:100BC0000A1D0433243115685468D2F808E0D2F8BD
:100BD0000CC01D605C60C3F808E0C3F80CC01032A4
:100BE00010338A42EFD112681A600130C0B2122865
:100BF000D5D9074C074D0FCD0FC40FCD0FC42B68AF
:100C00002360054B03221A7030BD00BF2C04002066
:100C100050040020300700202804002038B51B4B6A
:100C20001B7813B1012B18D038BD194C0123637305
:100C3000164A137061788901202304F1240201F51A
:100C4000A861BB2002F070FE63780133DBB26370F1
:100C5000132BE9D900226270E6E700250B4B1D70CB
:100C60000B4C0123E2184FF4A061BB2002F05CFEA4
:100C7000A3780133DBB2A3702570257325756575E4
:100C8000044B05221A706573CEE700BF2F070020C2
:100C90002C04002028040020324B5B7CDBB2012BAB
:100CA0000BD0304B5B7EDBB2012B06D02D4B0022EC
:100CB0005A732D4B05221A70704710B5294B01222B
:100CC0005A73DB7BDBB293420FD0264BDB7EDBB269
:100CD000012B17D0234B9B7EDBB2012B20D0214B65
:100CE0005B7EDBB2012B32D010BD1E4C1346A21C22
:100CF0004FF4A061BB2002F017FE0023E373012331
:100D0000E376F1E7174C042304F1080240F20451A2
:100D1000BB2002F009FE0023E3760123A376E3E77C
:100D2000124A13780133DBB21370142B06D9002357
:100D30000E4A13700B4A53749376D5E70C4A52F857
:100D4000231020230B4ABB2002F0EEFDCCE7054C1C
:100D50000323221D40F20151BB2002F0E5FD0023D8
:100D60006376C1E72C040020280400202A07002015
:100D7000D40300205004002008B52E4B93F87A309D
:100D8000B3B92D4B1B7BDBB2012B12D02A4B1B7D41
:100D9000DBB2012B11D0284B5B7CDBB2012B25D0C1
:100DA000254B5B7EDBB2012B31D0244B00221A7025
:100DB00008BD234B01221A70FAE71E4B9B7C012BC6
:100DC000E9D11C4B93F82D30002BE4D11B4A13784A
:100DD0000133DBB213709F2BEAD90123184A137039
:100DE000154A5375154B00221A70E1E7124800238B
:100DF0004370837083600123C3734FF43472FF2107
:100E0000243009F079FB0E4B04221A70D0E70A480F
:100E1000002343708370836043600123C3734FF4E6
:100E20003472FF21243009F067FB054B04221A704D
:100E3000BEE700BF541400202C0400202B07002024
:100E40002804002010B51C4BDB7DDBB2012B13D036
:100E500008211A4803F0C4F9C0B2194B1B78984214
:100E60001AD1154B00221A731A755A7503221A707B
:100E7000144B05221A700EE00F4C082104F11C00DF
:100E800003F0AEF90E4B18700E4B02221A700023BD
:100E9000E3750123237610BD074C082104F11C00E3
:100EA00003F09EF9064B1870064B02221A700023BD
:100EB000E37501232376EEE72C040020480400208C
:100EC0002D070020280400201E4B4FF4A8625A6012
:100ED0004FF4B0629A604FF4B862DA604FF4C062C7
:100EE0001A614FF4C8625A614FF4D0629A614FF4AC
:100EF000D862DA614FF4E0621A624FF4E8625A6233
:100F00004FF4F0629A624FF4F862DA624FF40062D2
:100F10001A634FF404625A634FF408629A634FF401
:100F20000C62DA634FF410621A644FF414625A646C
:100F30004FF418629A644FF41C62DA644FF4206232
:100F40001A657047D403002038B5324C4FF0FF319A
:100F5000B4F9D80004F09EFA00B22F4DA8824FF0E9
:100F6000FF31B4F9DC0004F095FA00B2E8824FF0EA
:100F7000FF31B4F9DA0004F08DFA00B228830121C0
:100F8000B4F9DE0004F086FA6883236823F07F4317
:100F900023F0FF03214A93422BD01F4B00229A815A
:100FA000DA811C4D6FF00801B5F9CE0004F072FA39
:100FB00000B2194C20826FF00601B5F9D20004F09E
:100FC00069FA6082164B9B7AE372164B9A78D2B21A
:100FD00022705A68D2B262705A68C2F30722A270B5
:100FE0005A68C2F30742E2709B68E36100232384DE
:100FF00038BD25466FF00401B4F9C80004F04AFA80
:10100000054CA0816FF00901B5F9CA0004F042FA5D
:10101000E081C6E7541400203007002000010100E1
:10102000681300202C04002008B5FFF78DFF384B13
:1010300093F82C30012B52D0354B93F82930012BEB
:101040004DD0334B93F82030012B48D0304B93F8E0
:101050002D30012B3FD02E4B93F86130012B1DD04A
:101060002B4B93F86A30012B18D0294B93F8693039
:10107000012B13D0264B93F86230012B0ED0244B5A
:1010800093F86330012B09D0214B93F86430012B86
:1010900004D01F4B93F86030012B37D11D4B5B7D83
:1010A000DBB2012B32D11C4AB2F850101B4B998095
:1010B00092F85210997192F85310D97192F8541015
:1010C000197292F85510597292F859209A72144B6D
:1010D00007221A701AE00E4B9B7C012BBBD10E4AE3
:1010E000B2F850100D4B998092F85210997192F805
:1010F0005310D97192F85410197292F85510597210
:1011000092F859209A72064B06221A7008BD00BF49
:10111000541400202C040020681300203007002005
:101120002804002008B5034B1A78034B53F82230EB
:10113000984708BD280400200001002000B583B0B6
:1011400004230DEB030240F20451BB2002F006FC25
:101150009DF804309DF8052003EB02239DF806203E
:1011600003EB02439DF8072003EB0263024A9360FE
:1011700003B05DF804FB00BF2C04002000B583B071
:10118000032301AA40F20151BB2002F0E7FB9DF8C6
:1011900004309DF8052003EB02239DF8062003EBA5
:1011A0000243024A536003B05DF804FB2C040020A4
:1011B00030B583B004230DF107024FF4A061BB20CA
:1011C00002F0CCFB9DF80730132B02D900238DF8D9
:1011D00007309DF80750132D16D81B4B5D705B78B8
:1011E0007BB1194B597814318901174C0123A21C8A
:1011F000BB2002F0B3FBA3780133DBB2A370002461
:1012000009E04FF42061F0E70F4B00225A709A700A
:10121000F5E70134E4B2132C13D80C4B53F8251026
:1012200004EBC4039A002032074B1A4424230432EF
:10123000BB2002F093FB013D15F0FF05E9D1142519
:10124000E7E703B030BD00BF2C040020D40300202A
:10125000114B5B7B23B9104B1B7CDBB2012B00D005
:10126000704710B582B00C4C63688DF80430636829
:10127000C3F307238DF805306368C3F307438DF884
:101280000630032301AA40F20151BB2002F04CFBBF
:101290000023237402B010BD2C040020244A1388BC
:1012A00001339BB2138041F28732934206D9214A1F
:1012B0009368013393601E4B00221A801E4A1388E4
:1012C000013313801B4B1B7EFBB91C4A138801336F
:1012D0001380184BDB7DE3B9194A1388013313805F
:1012E000184B5B78012B18D0174A13780133DBB207
:1012F0001370632B08D9154B1B78F02B14D00023E7
:10130000124A1370104A137070470C4B00221A8057
:10131000DFE70B4B00221A80E2E70C4BF0221A7039
:10132000094B00221A707047024B01221A74E6E73B
:10133000240700202C04002022070020260700207C
:1013400028070020541400202E0700202C0700201E
:1013500010B5002307E0991C174A02EB8102002117
:1013600051600133DBB2032BF5D900200EE000EB16
:10137000C0029100104A0A441A44002182F8241045
:101380000133DBB2232BF2D90130C0B2132801D8CC
:101390000023F7E7084B00241C705C609C705C70B5
:1013A000FFF7ECFEFFF7CAFEFFF78EFDFFF700FF29
:1013B000024B1C7010BD00BF2C040020280400202C
:1013C00008B5FFF7AFFE08BD002305E031F813C0F4
:1013D00020F813C001339BB29342F7D37047002328
:1013E00004E0002220F8132001339BB28B42F8D393
:1013F0007047002305E031F813C020F813C0013313
:101400009BB29342F7D3704784B00DF1100C0CE9F6
:101410000700124AB2F8D620B2F5906F14D9002214
:1014200004A901EB420232F80C0C03FB00F0C009E6
:101430000130400832F8083C32F9082C002A05DB5C
:10144000184480B204B070470122E9E75B429BB2C6
:10145000834201D8C01AF4E70020F2E754140020B8
:1014600084B08DE80F00BDF81820002301E001339F
:10147000DBB2022B05D803F108013DF811109142AF
:10148000F5D93DF8130002FB00F0C0090130400817
:1014900004333DF813203DF91330002B03DB1044D7
:1014A00080B204B07047524292B2824201D8801A90
:1014B000F6E70020F4E784B08DE80F00BDF81420B3
:1014C0000023012B08D8191D0DEB41018988914299
:1014D00002D80133DBB2F4E73DF8130002FB00F061
:1014E000C009013040080DEB4303DA88B3F9063038
:1014F000002B03DB104480B204B07047524292B21A
:10150000824201D8801AF6E70020F4E70C4BB3F8CA
:10151000C83011F4004F09D103FB01F14911C1EBAF
:10152000003100290ADB081380B27047494289B2B2
:1015300003FB01F1491101EB0031F2E70020F3E771
:101540005414002030B583B01E4AB2F89A30A2F885
:10155000BE30B2F89840A2F8C040927C012A1AD05E
:101560000023194A1380194A1380194A1380154B16
:10157000154A1288A3F8CE20144A1288A3F8D22064
:10158000134A1288A3F8D6200022A3F8D020A3F88B
:10159000D42003B030BD0F4A07CAFFF735FF054618
:1015A000094B18800C4B01941A6900920FCBFFF77E
:1015B00082FF064B188005FB00F0C0F34F30044B50
:1015C0001880D4E754140020260B00201E0B0020A6
:1015D000220B0020AC0D0020380C002008B5064A74
:1015E0001368013313604F2B00D808BD03F012FFBE
:1015F000014B00221A60F8E7280B00200D4BB3F8CE
:10160000B4000D4B1A8802FB00F0C01101304010ED
:101610009A88B3F90430002B03DB1044C0F389101F
:101620007047524292B2824201DC801AF6E70020F3
:10163000F4E700BF54140020A80B00202DE9F0416E
:1016400084B06B4CB4F80A806A4DA5F8B880A789BD
:10165000A5F8BA70268BA5F8BC60674B1E60A38AFC
:10166000A5F8B630238AA5F8B430FFF7C7FFA5F870
:10167000E000237F002B69D1604A434607CAFFF789
:10168000C3FE5F4B1880637F012B3DD05D4B0297FB
:1016900003F1100292E803008DE803000FCBFFF77F
:1016A000DFFE594B1880594B19883046FFF72EFF43
:1016B000504BA3F8C600564B029003F1100292E87B
:1016C00003008DE803000FCBFFF7CAFE514B1880D3
:1016D000484BB3F8D6304F4A1288934202D9183398
:1016E0004C4A1380434B464A1288A3F8C820464A06
:1016F0001288A3F8CA20474A1288A3F8E420A3F866
:10170000CC2004B0BDE8F081434B029703F11002F6
:1017100092E803008DE803000FCBFFF7A1FE3A4BE0
:1017200018803A4B59883046FFF7F0FEA5F8C600FE
:101730003A4B029003F1100292E803008DE8030097
:101740000FCBFFF78DFE334B1880C1E7344A434679
:1017500007CAFFF759FE2A4B1880254B5B7F012BE8
:1017600022D0304B029703F1100292E803008DE87B
:1017700003000FCBFFF774FE234B1880234B99888F
:101780003046FFF7C3FE1B4BA3F8C600264B029062
:1017900003F1100292E803008DE803000FCBFFF77E
:1017A0005FFE1C4B188093E7204B029703F1100259
:1017B00092E803008DE803000FCBFFF751FE124BB8
:1017C0001880124BD9883046FFF7A0FE094BA3F8CA
:1017D000C600174B029003F1100292E803008DE857
:1017E00003000FCBFFF73CFE0A4B188070E700BFE9
:1017F000600E0020541400202C0B00209C0B0020B5
:10180000240B0020540B00201C0B0020A00D0020F6
:10181000840B0020200B00203C0B00206C0B0020D0
:10182000140C0020CC0B0020FC0B0020B40B00207B
:10183000E40B002008B51D4B93F86730F3B11C4A48
:101840001368013313605F2B29D81A4A13680133D8
:101850001360B3F5FA7F10D3174B0022A3F8C8200A
:10186000A3F8CA20A3F8CC20B3F8A610A3F8B610AA
:1018700010490A60012283F85C2008BDFFF7DEFEF4
:1018800003F086FD00230B4A1360094A1360074AE0
:10189000012182F86710084A82F85C30EDE703F016
:1018A00077FD034B00221A60CFE700BF600E0020D7
:1018B000340B0020300B00205414002070B5064675
:1018C0000D460024214605E0305D03F037FEC1B22D
:1018D0000134A4B2ABB2A342F6D8084670BD0000F2
:1018E00010B5184B002283F80321174C142322460D
:1018F0004FF4C071EE2002F031F8237C182B0DD08C
:10190000104B93F80331BBB90A2210490E48FFF778
:1019100070FD0A210E48FFF762FD10BD112120461F
:10192000FFF7CCFF80B2238AB0EB132FE8D1054B31
:10193000012283F80321E3E70A2203490448FFF761
:1019400058FDEAE754140020380C00201002002053
:10195000480D002010B5184B002283F80221174CC7
:101960000C2322464FF4E071EE2001F0F7FF237ABA
:10197000182B0DD0104B93F80231BBB90622104939
:101980000E48FFF736FD06210E48FFF728FD10BD73
:1019900009212046FFF792FF80B22389B0EB132F75
:1019A000E8D1054B012283F80221E3E7062203492F
:1019B0000448FFF71EFDEAE754140020AC0D002098
:1019C000300200207C0D002010B5184B002283F857
:1019D000F820174C0C2322464FF4E871EE2001F05A
:1019E000BDFF237A182B0DD0104B93F8F830BBB9FC
:1019F000062210490E48FFF7FCFC06210E48FFF7AF
:101A0000EEFC10BD09212046FFF758FF80B2238964
:101A1000B0EB132FE8D1054B012283F8F820E3E760
:101A2000062203490448FFF7E4FCEAE754140020C7
:101A30009C0B002080010020AC0C002010B5184B3E
:101A4000002283F8FD20174C0C2322464FF4F0713E
:101A5000EE2001F083FF237A182B0DD0104B93F862
:101A6000FD30BBB9062210490E48FFF7C2FC062123
:101A70000E48FFF7B4FC10BD09212046FFF71EFFFA
:101A800080B22389B0EB132FE8D1054B012283F8F4
:101A9000FD20E3E7062203490448FFF7AAFCEAE732
:101AA00054140020140C0020EC010020240D002010
:101AB00010B5184B002283F8F920174C1823224642
:101AC0004FF40071EE2001F049FFA37D182B0DD0DB
:101AD000104B93F8F930BBB90C2210490E48FFF7B0
:101AE00088FC0C210E48FFF77AFC10BD1721204618
:101AF000FFF7E4FE80B2E38AB0EB132FE8D1054B89
:101B0000012283F8F920E3E70C2203490448FFF798
:101B100070FCEAE754140020540B00203801002028
:101B2000640C002010B5184B002283F8FA20174CE3
:101B3000182322464FF42071EE2001F00FFFA37D01
:101B4000182B0DD0104B93F8FA30BBB90C2210496A
:101B50000E48FFF74EFC0C210E48FFF740FC10BD6D
:101B600017212046FFF7AAFE80B2E38AB0EB132FBD
:101B7000E8D1054B012283F8FA20E3E70C22034960
:101B80000448FFF736FCEAE7541400203C0B002021
:101B9000200100204C0C002010B5184B002283F8C7
:101BA000FE20174C182322464FF42871EE2001F036
:101BB000D5FEA37D182B0DD0104B93F8FE30BBB98A
:101BC0000C2210490E48FFF714FC0C210E48FFF7B9
:101BD00006FC10BD17212046FFF770FE80B2E38A95
:101BE000B0EB132FE8D1054B012283F8FE20E3E789
:101BF0000C2203490448FFF7FCFBEAE754140020D9
:101C0000CC0B0020A4010020DC0C002010B5184BE8
:101C1000002283F8FF20174C182322464FF430711E
:101C2000EE2001F09BFEA37D182B0DD0104B93F8F6
:101C3000FF30BBB90C2210490E48FFF7DAFB0C212C
:101C40000E48FFF7CCFB10BD17212046FFF736FEEC
:101C500080B2E38AB0EB132FE8D1054B012283F861
:101C6000FF20E3E70C2203490448FFF7C2FBEAE741
:101C700054140020B40B00208C010020C40C002060
:101C800010B5184B002283F8FB20174C182322466E
:101C90004FF43871EE2001F061FEA37D182B0DD0BA
:101CA000104B93F8FB30BBB90C2210490E48FFF7DC
:101CB000A0FB0C210E48FFF792FB10BD1721204618
:101CC000FFF7FCFD80B2E38AB0EB132FE8D1054BA0
:101CD000012283F8FB20E3E70C2203490448FFF7C5
:101CE00088FBEAE754140020840B002068010020E0
:101CF000940C002010B5184B002283F8FC20174CE0
:101D0000182322464FF44071EE2001F027FEA37DF8
:101D1000182B0DD0104B93F8FC30BBB90C22104996
:101D20000E48FFF766FB0C210E48FFF758FB10BD6D
:101D300017212046FFF7C2FD80B2E38AB0EB132FD4
:101D4000E8D1054B012283F8FC20E3E70C2203498C
:101D50000448FFF74EFBEAE7541400206C0B002008
:101D6000500100207C0C002010B5184B002283F895
:101D70000021174C182322464FF46071EE2001F029
:101D8000EDFDA37D182B0DD0104B93F80031BBB99E
:101D90000C2210490E48FFF72CFB0C210E48FFF7D0
:101DA0001EFB10BD17212046FFF788FD80B2E38A95
:101DB000B0EB132FE8D1054B012283F80021E3E7B4
:101DC0000C2203490448FFF714FBEAE754140020EF
:101DD000FC0B0020D40100200C0D002010B5184B86
:101DE000002283F80121174C182322464FF4687112
:101DF000EE2001F0B3FDA37D182B0DD0104B93F80E
:101E00000131BBB90C2210490E48FFF7F2FA0C2140
:101E10000E48FFF7E4FA10BD17212046FFF74EFDEC
:101E200080B2E38AB0EB132FE8D1054B012283F88F
:101E30000121E3E70C2203490448FFF7DAFAEAE755
:101E400054140020E40B0020BC010020F40C0020FE
:101E500010B5184B002283F80621174C1823224690
:101E60004FF48461EE2001F079FDA37D182B0DD095
:101E7000104B93F80631BBB90C2210490E48FFF7FE
:101E8000B8FA0C210E48FFF7AAFA10BD1721204618
:101E9000FFF714FD80B2E38AB0EB132FE8D1054BB6
:101EA000012283F80621E3E70C2203490448FFF7E7
:101EB000A0FAEAE754140020200C0020F8010020CA
:101EC000300D002010B5184B002283F80721174C65
:101ED0000C2322464FF48861EE2001F03FFD237A67
:101EE000182B0DD0104B93F80731BBB906221049BF
:101EF0000E48FFF769FA0D4B188807F067F810BD18
:101F000009212046FFF7DAFC80B22389B0EB132FBA
:101F1000E8D1054B012283F80721E3E706220349B4
:101F20000448FFF766FAE6E754140020B80D0020D5
:101F300020A50008880D002010B5184B002283F85A
:101F40000821174C0C2322464FF48C61EE2001F03F
:101F500005FD237A182B0DD0104B93F80831BBB92F
:101F6000062210490E48FFF744FA06210E48FFF7F3
:101F700036FA10BD09212046FFF7A0FC80B2238964
:101F8000B0EB132FE8D1054B012283F80821E3E7DA
:101F9000062203490448FFF72CFAEAE7541400200C
:101FA000A00D002024020020700D002010B51D4C53
:101FB0000621204605F0ECFC07211B4805F0E8FC53
:101FC000012304F87E3CFFF78BFCFFF7C3FCFFF70F
:101FD000FBFCFFF733FDFFF76BFDFFF7A3FDFFF7FA
:101FE000DBFDFFF713FEFFF74BFEFFF783FEFFF766
:101FF000BBFEFFF7F3FEFFF79FFFFFF729FFFFF799
:1020000061FF00F035FE01F07DFB01F01BF80023BD
:1020100004F87F3C04F8803C04F87C3C04F87E3CE7
:1020200010BD00BF4C150020000B0020AC4B93F8F6
:102030001831012B00D0704710B5AA4B01221A703D
:10204000A74B93F80B31934200F09080A44B93F888
:102050000A31012B00F09880A14B93F80F31012B2E
:1020600000F0A5809E4B93F80031012B00F0B28068
:102070009B4B93F80531012B00F0BF80984B93F8F0
:102080000231012B00F0CC80954B93F80131012BEC
:1020900000F0D980924B93F80331012B00F0E680D9
:1020A0008F4B93F80431012B00F0F3808C4B93F8A5
:1020B0000731012B00F00081894B93F80631012B89
:1020C00000F02681864B93F80931012B00F0338113
:1020D000834B93F80831012B00F04081804B93F83B
:1020E0000E31012B00F04D817D4B93F81131012B06
:1020F00000F05A817A4B93F81231012B00F067817E
:10210000774B93F81331012B00F07481744B93F8E3
:102110000C31012B00F08281714B93F80D31012BB2
:1021200000F090816E4B93F81431012B00F09E81EA
:102130006B4BD3F80031C3B9694BD3F80431A3B961
:10214000674BD3F8083183B9654BD3F80C3163B9C9
:10215000634BD3F8103143B9614BD3F8143123B931
:10216000604B1B78012B00F0958110BD14235E4A53
:102170004FF4C071EE2001F0D7FB0023594A1370D1
:10218000574A82F80B3161E7564B1B78012B7FF4DD
:1021900063AF0C23554A4FF4E071EE2001F0C4FB0D
:1021A0000023504A13704E4A82F80A3154E74D4BCF
:1021B0001B78012B7FF456AF0C234D4A4FF48861F6
:1021C000EE2001F0B1FB0023464A1370444A82F826
:1021D0000F3147E7434B1B78012B7FF449AF0C23AA
:1021E000444A4FF4E871EE2001F09EFB00233D4A83
:1021F00013703B4A82F800313AE73A4B1B78012BC7
:102200007FF43CAF0C233C4A4FF4F071EE2001F018
:102210008BFB0023334A1370314A82F805312DE7D6
:10222000304B1B78012B7FF42FAF1823334A4FF428
:102230002071EE2001F078FB00232A4A1370284A0F
:1022400082F8023120E7274B1B78012B7FF422AF65
:1022500018232B4A4FF40071EE2001F065FB002398
:10226000204A13701E4A82F8013113E71D4B1B7878
:10227000012B7FF415AF1823224A4FF43871EE205A
:1022800001F052FB0023174A1370154A82F80331FC
:1022900006E7144B1B78012B7FF408AF18231A4A6A
:1022A0004FF44071EE2001F03FFB00230D4A137004
:1022B0000B4A82F80431F9E60A4B1B78012B7FF4B4
:1022C000FBAE1823114A4FF43071EE2001F02CFBC5
:1022D0000023044A1370024A82F80731ECE600BF7B
:1022E000000A0020380B0020480D00207C0D002043
:1022F000880D0020AC0C0020240D00204C0C002088
:10230000640C0020940C00207C0C0020C40C0020E5
:10231000644B1B78012B7FF4D5AE1823624A4FF42F
:102320002871EE2001F000FB00235E4A13705F4A23
:1023300082F80631C6E65B4B1B78012B7FF4C8AEF2
:1023400018235B4A4FF46871EE2001F0EDFA002388
:10235000544A1370554A82F80931B9E6514B1B783B
:10236000012B7FF4BBAE1823524A4FF46071EE206C
:1023700001F0DAFA00234B4A13704C4A82F8083114
:10238000ACE6484B1B78012B7FF4AEAE18234A4ACB
:102390004FF48461EE2001F0C7FA0023414A137024
:1023A000424A82F80E319FE63E4B1B78012B7FF4A8
:1023B000A1AE0C23414A4FF48C61EE2001F0B4FA37
:1023C0000023384A1370394A82F8113192E6354BAE
:1023D0001B78012B7FF494AE0C23394A4FF48E61A5
:1023E000EE2001F0A1FA00232E4A13702F4A82F842
:1023F000123185E62B4B1B78012B7FF487AE2B4CDB
:10240000202304F1C0024FF49061EE2001F08CFA19
:102410000023244A137084F8133177E6214B1B788C
:10242000012B7FF479AE214C202304F180024FF47C
:102430007071EE2001F078FA00231A4A137084F8C4
:102440000C3169E6174B1B78012B7FF46BAE174CF0
:10245000202304F1A0024FF47871EE2001F064FA19
:102460000023104A137084F80D315BE60D4B1B7886
:10247000012B7FF45DAE0D4C202304F1E0024FF4FC
:102480009461EE2001F050FA0023064A137084F89C
:1024900014314DE6054B002283F81821FFF786FD25
:1024A00063E600BF380B0020DC0C0020000A00208F
:1024B000F40C00200C0D0020300D0020700D0020C9
:1024C000B80C00203A4B93F81931012B00D070471B
:1024D00010B50A213748FEF782FF0A213648FEF779
:1024E0007EFF06213548FEF77AFF06213448FEF7C5
:1024F00076FF06213348FEF772FF06213248FEF7C9
:102500006EFF0C213148FEF76AFF0C213048FEF7C0
:1025100066FF0C212F48FEF762FF0C212E48FEF7C4
:102520005EFF0C212D48FEF75AFF0C212C48FEF7C8
:1025300056FF0C212B48FEF752FF0C212A48FEF7CC
:102540004EFF0C212948FEF74AFF06212848FEF7D6
:1025500046FF06212748FEF742FF06212648FEF7E0
:102560003EFF134C102104F14000FEF738FF10210C
:102570002046FEF734FF102104F12000FEF72FFF64
:10258000102104F16000FEF72AFF002306E0084A4C
:102590001A44012182F800110B44DBB2172BF6D943
:1025A000034B012283F81821002283F8192110BD62
:1025B000000A0020480D00205C0D00207C0D00204A
:1025C000880D0020AC0C0020240D00204C0C0020B5
:1025D000640C00207C0C0020940C0020C40C002013
:1025E000DC0C0020F40C00200C0D0020300D00202D
:1025F000700D0020B80C0020940D0020214B93F8A2
:1026000024311BB91F4A127B012A28D0012B22D06A
:102610001D4A13680133136041F28732934219D97E
:10262000184BB3F8142141F211139A4204D9154BF7
:1026300041F21112A3F81421124AB2F81431C3EB7B
:10264000031312490B60A2F8DE300023A2F8143104
:102650000D4A136070470B4B1B7B002BD8D1094BE5
:10266000B3F814210132A3F814211B7B012B04D0F1
:10267000044B002283F82421CAE7024B012283F88D
:102680002421C5E754140020D40D0020C80D0020DB
:1026900003688B421FD8C3688B421ED910B54FF018
:1026A000100E4FF0000C634602E094460133DBB29B
:1026B000032B0CD84FEA5E0E0CEB0E02D2B2032AAB
:1026C000F4D850F822408C42EFD3EFD194460CF16D
:1026D0000100C0B210BD002070470420704703689D
:1026E0008B421FDC03698B421EDD10B54FF0100ECC
:1026F0004FF0000C634602E094460133DBB2032B3B
:102700000CD84FEA5E0E0CEB0E02D2B2042AF4D8BB
:1027100050F822408C42EFDBEFD194460CF10100DF
:10272000C0B210BD002070470520704738B505467F
:1027300001460F48FFF7ACFF044629460D48FFF756
:10274000A7FF844209D0431C9C4202D00A4B93F855
:102750002001094BA3F8200138BDA3B2064AB2F804
:102760002021934202D9601EC0B2F2E72046F0E772
:10277000B4A50008A4A500085414002038B50546E7
:1027800001460F48FFF7ABFF044629460D48FFF707
:10279000A6FF844209D0431C9C4202D00A4B93F806
:1027A0002201094BA3F8220138BDA3B2064AB2F8B0
:1027B0002221934202D9601EC0B2F2E72046F0E720
:1027C00040A500082CA500085414002010B5124C98
:1027D000B4F8D200FFF7AAFFB4F9DC00FFF7CEFF90
:1027E000B4F82031042B02D90422A4F820210A4B8A
:1027F000B3F82231032B03D9074B0322A3F822217C
:10280000054AB2F82031B2F8222103EB83031344C6
:10281000024A52F8230010BD5414002054A50008A9
:1028200008B5144A136801331360042B02D8124B05
:10283000186808BD134600221A60FFF7C7FF0E4B49
:1028400018600E4B93F82531012B0AD00B4B93F8EF
:102850002731012BEBD1094BB3F91A21064B1A6032
:10286000E5E7064BB3F91A319842E0DA024A136001
:10287000DDE700BFC40D00203C02002054140020FE
:1028800008B5304BB3F91831C21A662A12DDB3F518
:102890007D7F03DA0A332B4AA2F8183100232A4A33
:1028A00013602A4A1360274BB3F9180180B206F06F
:1028B00079FB08BD002A11DD40F2F932934209DCB0
:1028C0000433204AA2F8183100231F4A13601F4A1C
:1028D0001360E8E71B4BA3F81801F5E72AB90023BA
:1028E000194A1360194A1360DDE712F1650F16DB10
:1028F00015490A6801320A60012A08D9042B0ADD49
:10290000043B104AA2F818310F4B00221A600F4BFB
:1029100000221A60C7E70B4BA3F81801F4E70B4934
:102920000A6801320A60012A08D90A2B03DD0A3B32
:10293000044AA2F81831054B00221A60024B00220B
:102940001A60B0E754140020D00D0020CC0D0020F8
:1029500008B5104B93F86630012B12D00D4B93F84D
:102960006730012B12D00B4B93F86830012B02D14A
:1029700040F2FE3007E0FFF753FF064BA3F81601C5
:1029800001E040F2FE30FFF77BFF08BD40F2FE3071
:10299000F9E700BF5414002010B50C4C0023A4F834
:1029A0001431A4F81631A4F81831A4F81A31A4F897
:1029B0002031A4F82231C4F8243140F2331006F05B
:1029C000F1FA40F23313A4F8183110BD541400206A
:1029D0000B4B93F82030012B08D00A4BE6229A6269
:1029E000BE21D9621A60C8225A607047054BBE22C8
:1029F0009A62AA21D962D22119605A60704700BF39
:102A000054140020D80D00201B4B93F82730CBB96D
:102A1000194BB3F9DA20194B1B689A420EDB174A9F
:102A2000936801339360D268934223D3134B0022FF
:102A30009A60114B012283F8272070470F4B002228
:102A40009A6070470C4BB3F9DA200C4B5B689A42E2
:102A50000DDC0A4A9368013393601269934209D3EB
:102A60000023064A9360044A82F827307047034BDC
:102A700000229A60704700BF54140020D80D002037
:102A80001B4B93F82830CBB9194BB3F9DC20194B09
:102A90005B699A420EDB174AD3690133D361126A2C
:102AA000934223D3134B0022DA61114B012283F8A6
:102AB000282070470F4B0022DA6170470C4BB3F9A6
:102AC000DC200C4B9B699A420DDC0A4AD369013326
:102AD000D361526A934209D30023064AD361044A60
:102AE00082F828307047034B0022DA61704700BF3C
:102AF00054140020D80D002008B5154B93F824304D
:102B00001BB1144B00221A6408BD04F03BFF0328DC
:102B100003D0104B00221A64F6E70D4BB3F89A204D
:102B20000C4BDB6B9A420ED80A4A136C01331364C8
:102B3000526C9342E8D3074B00221A64044B0122E3
:102B400083F82420E0E7034B00221A64DCE700BF8F
:102B500054140020D80D002008B5154B93F82330ED
:102B60001BB1144B0022DA6408BD04F00BFF0328EC
:102B700003D0104B0022DA64F6E70D4BB3F89A202D
:102B80000C4B9B6C9A420ED30A4AD36C0133D3642C
:102B9000126D9342E8D3074B0022DA64044B012202
:102BA00083F82320E0E7034B0022DA64DCE700BF70
:102BB00054140020D80D002008B5284B93F822307B
:102BC000002B44D1254B9B7C012B05D00023244AAC
:102BD0001360244A93653FE0204B9B78012BF5D18D
:102BE0001E4BB3F898201F4B5B6D9A4214D31C4BBD
:102BF00000221A601B4A936D01339365D26D934294
:102C00002AD3184B184A12685A6500229A65134B4A
:102C1000012283F822201FE004F0B4FE032806D02E
:102C20000F4B00221A600F4B00229A6514E00C4AE9
:102C300013680133136044F25B429342F3D90B4BA8
:102C40001A68084B5A65064B00221A60EBE700230E
:102C5000034A1360034A936508BD00BF5414002063
:102C60004C0E0020D80D0020540E0020500E0020E5
:102C70002DE9F8434C4EB6F90A00FDF7B3FC804647
:102C8000894602460B4600204849FDF75DFB0022BD
:102C9000474BFDF711FD04460D46B088FDF7A2FC39
:102CA00006460F4602460B4620462946FDF72EFEF5
:102CB000FDF714FF04463F4B186042464B46002088
:102CC0003D49FDF741FB0022394BFDF7F5FC32464B
:102CD0003B46FDF71BFEFDF701FF384B1860384DF2
:102CE0006C650024AC6540F2DC53EB65354FB7F9F9
:102CF00004603046FDF776FC02460B4628A1D1E978
:102D00000001FDF721FB0022294BFDF7D5FC804691
:102D100089463F883846FDF765FC02460B4640462B
:102D20004946FDF7F3FDFDF7D9FEA864EC640A23DC
:102D30002B65C6F5A050000290FBF7F0E8632C6409
:102D400005236B64B0236B619C23AB6178232B62FA
:102D50006B62EC61E6222A60C8216960EB602B613E
:102D6000AC60AA62BE22EA626B63AB632C634FF471
:102D7000AF732B664FF4FA736B66AC660F23EB668A
:102D80002B67234607E003F108010F4A002042F8B1
:102D900021000133DBB2032BF5D9BDE8F88300BF76
:102DA000CDCCCCCCCCCCBA40380C00200080A1409B
:102DB00000007040500E00200080A040540E002003
:102DC000D80D0020AC0D00205414002030B404684D
:102DD0009C4202DB086830BC704702F1804C0CF169
:102DE000FF3C50F82C409C4227DC51F82C00F2E7C5
:102DF0000CF1010C624503D950F82C409C42F7DBE2
:102E000050F82C4051F82C200CF1804C0CF1FF3C78
:102E100050F82C5051F82C008242DCD0AC42DAD071
:102E2000121A02FB03F3641B93FBF4F305FB02F29B
:102E300092FBF4F29B1A1844CDE74FF0000CD9E74F
:102E400008B50346192203490348FFF7BFFF00B244
:102E500008BD00BF40020020C4A5000808B50D4B06
:102E6000B3F8B6300C4A11680B4413600B490A687A
:102E700001320A600F2A0CD900220A6006490A6052
:102E80001B09192206490748FFF7A0FF014BA3F8C9
:102E9000D80008BD541400205C0E0020580E0020FD
:102EA00008030020A402002008B5034619220349A4
:102EB0000348FFF78BFF00B208BD00BF08030020E6
:102EC000A402002008B50E4BB3F89C00B0F5805F5B
:102ED00000D3002000B2FFF7B3FF094BA3F8DC00DA
:102EE000B3F89E00B0F5805F00D3002000B2FFF77A
:102EF000DBFF034BA3F8DA00FFF7B0FF08BD00BF0C
:102F00005414002010B50146234C1C22204601F029
:102F1000DBF9238913F0010F26D0012184F820105A
:102F200013F0020F25D01C4A012182F8211013F062
:102F3000080F23D0184B012283F82220164B5B8800
:102F400013F4805F1FD0144B0122DA77124B93F8F1
:102F50006730012B1BD0104B93F866301BB90E4B1A
:102F6000012283F8662010BD0B4A002182F8201050
:102F7000D6E7094A002182F82110D8E7064B002243
:102F800083F82220DAE7044B0022DA77DEE7024BEF
:102F9000002283F86720DEE7600E002008B50A4BA8
:102FA00093F86630012B00D008BD074BDB7F002B68
:102FB000FAD1054880F86630044A212302F1100155
:102FC000243000F089F8EFE7600E0020CC0E0020DE
:102FD00008B50B4B93F86630012B00D008BD084BA9
:102FE000DB7F012BFAD10648002380F86630054AC2
:102FF000222302F11001243000F06EF8EEE700BF4A
:10300000600E0020CC0E002010B50D4C072120468C
:1030100004F0BEFC012104F11C0004F0B9FC012104
:1030200004F1200004F0B4FC022104F1640004F077
:10303000AFFC012384F867302377637710BD00BFAE
:10304000600E0020704708B54378112B00D008BDF2
:103050000430FFF757FFFAE730B583B000238DF84F
:1030600007300B79012B01D003B030BD05460C466B
:103070000378AA2B06D072B6002323710123637153
:1030800062B6F1E7C278502AF5D8036803F0FF234F
:103090000E498B4205D00E498B4202D00D498B421E
:1030A000E9D1531DEB5C472BE5D1291D0DF107003C
:1030B00001F0C6F8EB780433EA5C9DF807309A42D9
:1030C000D9D12846FFF7BFFFD5E700BF0011001C8C
:1030D000001200480013000470B55578E5B90C469D
:1030E0001646CC220A7000228A70213B042B0FD88E
:1030F000DFE803F003131E29340021234B7038222C
:10310000CA700146201D01F0BDF8772384F83D30D8
:10311000012373700023F37070BD22234B700822CB
:10312000CA700146201D01F0ADF877236373EFE705
:1031300023234B700422CA700146A01801F0A2F8A4
:1031400077236372E4E724234B700422CA7001469C
:10315000A01801F097F877236372D9E725234B7005
:103160004422CA700146201D01F08CF8772384F8B0
:103170004930CDE708B5136823F07F4323F0FF0300
:10318000B3F5807F00D008BD8C460D4B984206D029
:103190000C4B98420CD0002353709370F3E701233B
:1031A0009370C9780631C9B2604606F04BF8EAE779
:1031B00001239370C9780631604606F05BF8E2E7B8
:1031C00000440040004800401B4B93F86830CBB9E6
:1031D000194BB3F9DC20194B1B689A420EDB174AD6
:1031E000936801339360D268934223D3134B002238
:1031F0009A60114B012283F8682070470F4B002220
:103200009A6070470C4BB3F9DC200C4B5B689A4218
:103210000DDC0A4A9368013393601269934209D323
:103220000023064A9360044A82F868307047034BD3
:1032300000229A60704700BF541400201C10002028
:103240001B4B93F86630CBB9194BB3F9D820194B07
:103250009B6A9A420EDB174A136B01331363526B5E
:10326000934223D3134B00221A63114B012283F89C
:10327000662070470F4B00221A6370470C4BB3F95E
:10328000D8200C4BDB6A9A420DDC0A4A136B0133DF
:103290001363926B934209D30023064A1363044AD3
:1032A00082F866307047034B00221A63704700BFF4
:1032B000541400201C1000201B4B93F86730CBB92E
:1032C000194BB3F9DA20194B5B699A420EDB174AA6
:1032D000D3690133D361126A934223D3134B002283
:1032E000DA61114B012283F8672070470F4B0022EF
:1032F000DA6170470C4BB3F9DA200C4B9B699A42A8
:103300000DDC0A4AD3690133D361526A934209D36F
:103310000023064AD361044A82F867307047034BA2
:103320000022DA61704700BF541400201C100020F6
:1033300008B504F027FB032803D01D4B00229A6533
:1033400008BD1C4B93F86230CBB91A4BB3F8D220AE
:10335000174B1B6D9A420ED3154A936D013393653B
:10336000D26D9342ECD3124B00229A65114B01228D
:1033700083F86220E4E70E4B00229A65E0E70D4BEC
:10338000B3F8D2200A4B5B6D9A420DD8084A936D70
:1033900001339365126E9342D2D30023044A93659E
:1033A000044A82F86230CBE7014B00229A65C7E7F6
:1033B0001C100020541400201B4B93F86030CBB934
:1033C000194BB3F8DE20194BDB6B9A420ED8174A23
:1033D000536C01335364926C934223D3134B0022FA
:1033E0005A64114B012283F8602070470F4B002272
:1033F0005A6470470C4BB3F8DE200C4B1B6C9A429E
:103400000DD30A4A536C01335364D26C934209D3EF
:103410000023064A5364044A82F860307047034B25
:1034200000225A64704700BF541400201C10002072
:10343000324B5B78012B04D0314B0022C3F8902033
:1034400070472E4B93F8693063BB2E4B1B7F3BB903
:103450002A4AB2F8C8102A4AD2F8802091420ED2E5
:10346000012B04D0264B0022C3F890207047234B39
:10347000B3F8C820224BD3F884309A42F2D3204AC2
:10348000D2F890300133C2F89030D2F894209342B1
:10349000D6D31B4B0022C3F89020184B012283F88F
:1034A00069207047174B1B7F3BB9144AB2F8C8100C
:1034B000134AD2F8882091420ED9012B04D0104B28
:1034C0000022C3F8902070470C4BB3F8C8200C4B77
:1034D000D3F88C309A42F2D8094AD2F890300133AE
:1034E000C2F89030D2F898209342A9D30023044A1E
:1034F000C2F89030014A82F86930704754140020B5
:103500001C100020600E00202B4B5B78012B03D099
:103510002A4B00225A677047274B93F86A302BBB1F
:10352000274B1B7F33B9244AB2F8C810234A526E86
:1035300091420CD9012B03D0204B00225A677047CF
:103540001D4BB3F8C8201D4B9B6E9A42F4D81B4A02
:10355000536F01335367926F9342DCD3174B0022B2
:103560005A67154B012283F86A207047144B1B7F62
:1035700033B9114AB2F8C810104AD26E91420CD237
:10358000012B03D00D4B00225A6770470A4BB3F84A
:10359000C8200A4B1B6F9A42F4D3084A536F013379
:1035A0005367D26F9342B6D30023044A5367024A4B
:1035B00082F86A30704700BF541400201C100020AD
:1035C000600E0020254B9B7C012B04D0244B002255
:1035D000C3F8B8207047214B93F86330FBB91F4BF9
:1035E000B3F8CE201E4BD3F8B0309A4212DB1C4AFF
:1035F000D2F8B8300133C2F8B830D2F8BC209342C8
:10360000E8D3174B0022C3F8B820144B012283F8EB
:1036100063207047124B0022C3F8B82070470F4B4D
:10362000B3F8CE200E4BD3F8B4309A4211DC0C4ADA
:10363000D2F8B8300133C2F8B830D2F8C020934283
:10364000C8D30023064AC2F8B830044A82F863306F
:103650007047034B0022C3F8B82070475414002071
:103660001C100020254B9B7C012B04D0244B0022F6
:10367000C3F8A4207047214B93F86430FBB91F4B6B
:10368000B3F8CE201E4BD3F89C309A4212DC1C4A71
:10369000D2F8A4300133C2F8A430D2F8A820934263
:1036A000E8D3174B0022C3F8A420144B012283F85F
:1036B00064207047124B0022C3F8A42070470F4BC0
:1036C000B3F8CE200E4BD3F8A0309A4211DB0C4A4F
:1036D000D2F8A4300133C2F8A430D2F8AC2093421F
:1036E000C8D30023064AC2F8A430044A82F86430E2
:1036F0007047034B0022C3F8A420704754140020E5
:103700001C10002010B43B4B00229A651421D9658F
:1037100019664FF40061196540F2A67159659A6007
:103720003C21D9601961962018608C205860DA61BC
:1037300019625962DC205861B42098611A63596398
:103740009963C8219962AA21D9625A640C219964AB
:10375000D9644FF4AF71D9634FF4E17119645A67BA
:103760001E219967D9674FF480645C664FF49060BE
:10377000D8669C661867C3F89020C3F89410C3F805
:1037800098104FF41C64C3F884404FF41860C3F8D9
:103790008C00C3F88040C3F88800C3F8A4206420DC
:1037A000C3F8A800C3F8AC104FF4B050C3F89C00A5
:1037B00041F23370C3F8A000C3F8B820C3F8BC10BE
:1037C000C3F8C0104FF4D051C3F8B01041F6B8019F
:1037D000C3F8B410134607E003F11801064A0020AD
:1037E00042F821000133DBB2052BF5D95DF8044B1B
:1037F000704700BF1C1000205414002008B505F0CD
:10380000EDF908BD08B505F003F908BD164B1B78A6
:10381000FF2B04D0AA2B14D0472B1BD07047134B7F
:1038200093F87A30012B08D0104B93F87930012BA4
:10383000F4D10D4B47221A7070470B4BAA221A7015
:1038400070470A4B93F87A30002BE7D1064BFF22E2
:103850001A707047054B93F87930002BDED1024B7C
:10386000FF221A70DAE700BFE01000205414002095
:1038700038B504460D46FFF7C9FFBB2C25D009D942
:10388000DD2C36D0EE2C11D1264B1B78AA2B29D05B
:1038900000203BE0772C38D0AA2C05D1214B1B7897
:1038A000552B05D0002031E000202FE000202DE036
:1038B000A5F52C53B3F5544F29D3F02D29D0F42D71
:1038C00001D0002022E0012020E0164B1B78FF2BC6
:1038D00001D000201AE0A5F5A061B1F5C06F1AD89B
:1038E000012013E0A5F5C071B1F5607F15D201206C
:1038F0000CE00C4B1B78472B01D0002006E0A5F50F
:1039000080713F290BD8012000E0012038BD012043
:10391000FCE70120FAE70020F8E70020F6E70020A6
:10392000F4E700BFE0100020F8B50C4615461E462F
:10393000FFF79EFF012803D0074B99229A70F8BD2C
:10394000054F6623BB70F3B22A46A1B2A020FFF751
:1039500055FF9923BB70F2E7E0100020F8B50E4642
:1039600015461C46FFF784FF012803D0094B93F846
:1039700057305BB9084F55237B70E3B22A46B1B28A
:10398000A020FFF73FFF88237B70F8BD024B882201
:103990005A70FAE754140020E0100020014BFF2277
:1039A0001A707047E0100020014B1880704700BF6C
:1039B000E4100020014B1888704700BFE41000207D
:1039C00038B50D4C002525606560A560E560256172
:1039D0006561A561E5612562656201224FF4806140
:1039E000064806F027F9A562E5622563656300F0E5
:1039F000DDF800F0B5F838BDE8100020000C0140FB
:103A000008B500F0D9F808BD3C4BD3F800223C4B78
:103A10001340B3F1005F00D0704710B572B60121BA
:103A20004FF4805006F00AFB00214FF4805006F05E
:103A300005FB0121084606F00FFB0021012006F0DE
:103A40000BFB0121102006F007FB0021102006F0DF
:103A500003FB0121202006F0FFFA0021202006F0C0
:103A6000FBFA01214FF4006006F0CCFA00214FF47C
:103A7000006006F0C7FA01214FF4003006F0ECFABE
:103A800000214FF4003006F0E7FA01214FF4001056
:103A900006F0E2FA00214FF4001006F0DDFA0121F1
:103AA0004FF4800006F0D8FA00214FF4800006F0B1
:103AB000D3FA1448002480F8354080F834400123BC
:103AC00080F837301021283000F08AFB0E4B186048
:103AD0000E4B0F4A9A6005F02DFF204605F032FF8D
:103AE000204605F01BFF054AD2F8043209490B6055
:103AF000D2F8002282F30888984710BD0000010820
:103B00000000FE2FE81000200000002000ED00E083
:103B1000000201082C1100200A4B93F83630012BCB
:103B200004D0084B1B7F012B04D07047064B0122A9
:103B30001A707047034B0122DA75034B05221A7085
:103B4000F3E700BFE810002030110020014B0122F4
:103B50001A7070473011002008B5FFF755FF08BDF7
:103B60000023054A137004E0044A0021D1540133B4
:103B7000DBB2292BF8D9704794110020981100204E
:103B8000064A13780649C8540133DBB21370292B57
:103B900002D9134629221A70704700BF94110020E1
:103BA000981100200048704798110020014B002216
:103BB0001A7070473011002008B5034B1A78034B78
:103BC00053F82230984708BD301100206C030020C4
:103BD00010B50023104AA2F8403012E010F803C0DC
:103BE000C21892F801E00C4CB4F840200CEB0E2CFB
:103BF00002F1100E24F81EC00132A4F84020023356
:103C00009BB28AB29A42E9D8034A936C0133936417
:103C1000024B01221A7710BD38110020E810002055
:103C20000F4B0022A3F8402009E00D4A03F11001D8
:103C30004FF6FF7022F811000133A2F84030084B14
:103C4000B3F840300F2BF0D90022064B9A74044B86
:103C5000DA649A64A3F84020034A5A64704700BFAC
:103C600038110020E81000200000010810B5FFF70F
:103C7000D7FF7A2006F0FEF910B1214B00221A601E
:103C80007E2006F0F7F910B11D4B00221A60792052
:103C900006F0F0F910B11A4B00221A60772006F0F6
:103CA000E9F910B1164B00221A607A2006F0E2F909
:103CB00010B1134B00221A607B2006F0DBF910B123
:103CC0000F4B00221A607F2006F0D4F910B10C4B84
:103CD00000221A600120FFF753FF0A4C084B1968B5
:103CE000204600F095FA012304F8123C002262738A
:103CF000054A13707C2006F0BDF906F0D5F910BD19
:103D000000000020101100203011002000B583B009
:103D1000012201A9034800F052FA019803B05DF8AE
:103D200004FB00BF0000010810B51A4B586C00F1ED
:103D3000774303F57F03B3F5803F28D2C40A164BBF
:103D40001B68B3EBD02F19D1124C082204F12001CB
:103D5000606C00F01DFA636C20336364E36C013324
:103D6000E36401200B4BDB6CB3F5006F05D30B4B09
:103D700001225A77002283F8292010BD00F0FEF9B5
:103D8000064B012283F82E20034B1C60DCE7002049
:103D9000E8E700BF3811002090110020E810002053
:103DA00008B5114B93F83630012B06D10E4B00228B
:103DB000DA750E4B01221A7008BDFFF7B5FF012816
:103DC0000AD0094B01229A74074B5B7F012BF3D178
:103DD000064B06221A70EFE7034B0022DA751A77BA
:103DE000024B04221A70EFE7E81000203011002087
:103DF0000023934210D200B510F901EB11F901CB69
:103E0000E64506D10133DBB29342F5D300205DF8DD
:103E100004FB4FF0FF30FAE70020704710B5114C5B
:103E200008222146104800F0CAF902220F4904F185
:103E30001A00FFF7DDFF30B90B220D4904F10A002B
:103E4000FFF7D6FF30B10B4B00225A760320FFF765
:103E500097FE10BD074B01225A760220FFF790FE15
:103E6000F7E700BF381100200000010828A600086D
:103E70002CA60008E810002008B502220B490C48C7
:103E8000FFF7B6FF60B90B220A490B48FFF7B0FFF6
:103E900030B90A4B01229A76DA7783F82D2003E0B5
:103EA000064B00229A76DA7708BD00BF28A60008E4
:103EB000521100202CA6000842110020E81000201A
:103EC00010B5564BDB7E33B9544B5B6B03F0FF13DD
:103ED000B3F1011F1BD0514B93F834301BB94F4B3A
:103EE0005B7E012B28D04D4B93F83530012B37D01A
:103EF000012B45D0494B00229A77484B93F8363036
:103F0000012B4FD0454B1B7F012B5CD010BD434B89
:103F10000122DA761A7500241C745C769C7683F88C
:103F20002E405C770620FFF72BFE22464FF480617F
:103F30003B4805F07FFECEE7384B1B7C012BD2D1EE
:103F4000364B01229A77374B02221A7000224FF427
:103F50008061334805F06EFE0720FFF711FECCE7C5
:103F60002E4A127E002AC3D12C4A92F82E20002A13
:103F7000BED12A4B01229A772A4B02221A70BCE743
:103F8000264B5B7E012BB5D1244B1B7C012BB1D181
:103F9000224B01229A77234B02221A700820FFF746
:103FA000EFFDAAE71D4B9B7E012BABD11B4B0022E3
:103FB00083F836201B4A052111700122DA750A2088
:103FC000FFF7DEFDA2E7154B1B7E002B9ED10023E1
:103FD00008E0154A03F1080152F8211042F82310B5
:103FE00001339BB2072BF4D9FFF746FF0B4B9B7EA7
:103FF00043B10A4B00221A7701221A760D20FFF7EF
:10400000BFFD83E7054B01229A7783F82C20054BEF
:1040100002221A700B20FFF7B3FDEAE7E810002038
:10402000000C014030110020381100200B8858404E
:10403000002302E040080133DBB2072B07D810F061
:10404000010FF7D04AF2010282EA5000F3E708803C
:104050007047F0B583B007460E460025ADF8065010
:104060001BE0E81900F0A9F804460DF10601C0B202
:10407000FFF7DCFF0DF10601C4F30720FFF7D6FFC1
:104080000DF10601C4F30740FFF7D0FF0DF1060163
:10409000200EFFF7CBFF0435ADB2B542E1D3BDF83A
:1040A000060003B0F0BD000008B54FF6FC710248F1
:1040B000FFF7CFFF08BD00BF0400010810B5FFF7F0
:1040C000ADFEFFF723FE2A4C2065FFF7EDFF60658C
:1040D00094F85100FFF754FD94F85000FFF750FD9D
:1040E00094F85500FFF74CFD94F85400FFF748FD95
:1040F000626D236D9A4214D01E4B01221A75002264
:104100001A74DA761B7E012B28D01A4B002283F812
:104110002E20184B00229A765A77174B03221A70DA
:1041200010BD144B01221A7400221A751B7E012B3C
:1041300003D00420FFF724FDEBE70E4B93F82E305D
:10414000012BF6D11320FFF71BFD0A4B00221A7634
:10415000012183F8281083F82A20EAE7054B93F819
:104160002E30012BD1D1034B012283F82A20CCE73A
:1041700038110020E81000203011002010B504464E
:1041800005F0ECFB204605F03DFC05F0F3FB10BD0F
:10419000F8B505460F46164605F0E0FB002407E09B
:1041A00057F82410284605F051FC04350134A4B218
:1041B000B442F5D305F0DEFBF8BD00687047F8B5F2
:1041C00005460F461646002407E02846FFF7F5FF90
:1041D00047F8240004350134A4B2B442F5D3F8BD45
:1041E0008446202900D920210023184605E0012219
:1041F0009A4020EA02000133DBB2994207D91CF849
:104200000320002AF3D001229A401043F3E77047BD
:10421000002305E021FA03F202F00102C254013347
:104220001F2BF7D970478C4639B970470022C2540A
:104230000133DBB26345F9D370470023FAE700008E
:104240004FF0000C944517D230B511F80C300478BB
:10425000634003701C0903F00F03084D15F804E0D8
:10426000074CE35C8EEA030303700CF1010C5FFA68
:104270008CFC9445E9D330BD704700BF38A60008D8
:1042800048A6000830B500239E4613E0CC5CC45419
:1042900011F803C08CEA0E0C4FEA1C140CF00F0C42
:1042A000074D15F804E0074C14F80CC08EEA0C0E0C
:1042B0000133DBB29342E9D300F802E030BD00BF26
:1042C00038A6000848A60008002305E011F803C03E
:1042D00000F803C00133DBB29342F7D3704708B54F
:1042E00072B6012383F3108804F0D2FCFFF768FB59
:1042F00003F03AFF04F060FF04F04AFE04F062FAB3
:1043000004F0FAFA04F0B8FC03F01AFD62B60023D8
:1043100083F31088FFF774FB03F0BCFBFAE700009F
:1043200010B50D4C002121700C4B19700C4B1970FD
:104330000C4B19700C4B197084F82410012384F86D
:10434000253084F82630FF236371084B1889C0B2EA
:1043500001F0F4F8207010BD681300205A120020FC
:104360004B1300205B1200204C130020005400402F
:1043700038B5494B93F82530012B17D0474D2C7891
:10438000474805F03BFD474B1855434C2A782178A8
:10439000985C01F0D3F8207094F82630012B18D0E7
:1043A0003D4B93F82430012B2ED038BD3A4C0023DE
:1043B00084F825303A4805F021FD6070217801F03D
:1043C000BDF820706378032BEFD1012284F82A20F6
:1043D000EBE7607803F074F86071FF2809D10023DF
:1043E000314A137084F824302B4B002283F82620A6
:1043F000D6E7294C0146607802F0E4FF2A4B18709A
:10440000012384F82430EFE7244B1B78264A1278E6
:1044100093420AD20133DBB220490B709A42C4D1D5
:104420001D4B012283F82A20BFE79342BDD11A4BCE
:104430001B78DBB1184B93F83E2042F0200283F842
:104440003E2093F84A2042F0200283F84A2093F855
:10445000562042F0200283F85620104A1378013388
:1044600013700D4B002283F82A209EE703F03CF8DE
:10447000094B93F83E2022F0200283F83E2093F867
:104480004A2022F0200283F84A2093F8562022F096
:10449000200283F85620E0E7681300205A1200201B
:1044A00000540040C41100205B12002010B5054BE1
:1044B0001889C0B20130044C2178C0B201F03EF836
:1044C000207010BD005400406813002070B502F049
:1044D0007BFA144B1A78144B1B78013B9A4206DB8B
:1044E0009A4215D0FF21114805F086FC70BD104E90
:1044F000B15C0E4805F080FC0E4D0A4C23782978FB
:10450000F05C01F01BF82870237801332370EDE78D
:10451000084B1978054805F06FFC024A13780133FF
:104520001370E3E74B1300204C13002000540040AD
:104530005C1200206813002008B5064B93F82A305F
:10454000012B00D008BD02F0CFFF024B002283F800
:104550002A20F7E76813002008B52349234805F00F
:1045600067FCA0B12148038B4FF4802105F060FC6B
:1045700028B9FFF7D5FE1E4B01221A7008BDFFF7C0
:1045800095FF00231A4A13701A4A1370F6E71A4966
:10459000164805F04DFC10B1FFF7EAFEEEE71749AB
:1045A000124805F045FC10B1FFF790FFE6E714490B
:1045B0000E4805F03DFC48B1FFF7BEFF0C4B002252
:1045C0001A700121094805F0D3FBD7E70D490748C8
:1045D00005F02EFC0028D1D0064B00221A700121D4
:1045E000024805F0E1FBC9E702000010005400405A
:1045F000001400204B130020400000108000001029
:10460000100000100004001008B52749274805F0E5
:104610000FFCF8B92649254805F00AFC20BB2549BE
:10462000224805F005FC20BB2349204805F000FC8A
:1046300020BB22491D4805F0FBFB20BB20491B483D
:1046400005F0F6FB20BB4FF01021184805F0F0FBF9
:1046500018BB08BD00231B4A13701B4A1370124974
:10466000124805F001FCD5E71149104805F0FCFBA4
:10467000D5E710490D4805F0F7FBD5E70E490B4883
:1046800005F0F2FBD5E70D49084805F0EDFBD5E74D
:104690000B49064805F0E8FBD5E74FF01021034829
:1046A00005F0E2FBD5E700BF000400100054004015
:1046B00000800010004000100008001000020010F0
:1046C000000100104B130020001400200E4BB3F823
:1046D000502022F4F76222F006021205120DA3F810
:1046E0005020002283F8522083F8532083F854206E
:1046F00083F8552083F8562083F8572083F85820F4
:1047000083F85920704700BF681300200D4B1A8FA3
:1047100022F4F76222F006021205120D1A87002217
:1047200083F83A2083F83B2083F83C2083F83D202F
:1047300083F83E2083F83F2083F8402083F841200F
:10474000704700BF681300200E4BB3F8442022F4DA
:10475000F76222F006021205120DA3F8442000228F
:1047600083F8462083F8472083F8482083F84920BF
:1047700083F84A2083F84B2083F84C2083F84D209F
:10478000704700BF6813002000211DE0104801EBB6
:1047900041029300034400221A8783F83A2083F8E9
:1047A0003B2083F83C2083F83D2083F83E2083F8AB
:1047B0003F2083F8402001EB410C4FEA8C03184462
:1047C00080F841200131C9B20229DFD9704700BF0A
:1047D000681300201E4B4FF6FF72A3F87420FF21D0
:1047E00083F8762083F8771083F8781083F87910AF
:1047F00083F87A1083F87B1083F87C1083F87D109F
:10480000A3F85C2083F85E2083F85F2083F86020A3
:1048100083F8612083F8622083F8632083F86420A2
:1048200083F86520A3F8682083F86A205F2183F865
:104830006B10EF2183F86C103F2183F86D1083F823
:104840006E2083F86F2083F8702083F87120704702
:104850006813002038B5FFF797FF0E4C0025257030
:104860006570A561257125626562A562E562012317
:1048700084F823302561FF23E361E5708823A3706A
:1048800002F0B0F842F21073A381FFF7A3FF84F89F
:104890002A5038BD6813002008B5FFF7DBFF094A2E
:1048A0000023136053609360074A13605360936062
:1048B000064A136053609360054A13605360936027
:1048C00008BD00BF50130020E81300205C13002037
:1048D000F4130020584B93F86330012B5BD0574BF7
:1048E00093F83A2022F0400283F83A2093F84620C9
:1048F00022F0400283F8462093F8522022F0400232
:1049000083F852204C4B93F86430012B57D04B4B1B
:1049100093F83A2022F0200283F83A2093F84620B8
:1049200022F0200283F8462093F8522022F0200241
:1049300083F85220404B93F82330012B53D03F4B48
:1049400093F83A2002F07F0283F83A2093F8462049
:1049500002F07F0283F8462093F8522002F07F0293
:1049600083F85220344B93F82430012B4FD0334B33
:1049700093F83A2022F0100283F83A2093F8462068
:1049800022F0100283F8462093F8522022F0100201
:1049900083F852207047294B93F83A2042F04002A6
:1049A00083F83A2093F8462042F0400283F84620EC
:1049B00093F8522042F0400283F85220A2E71F4BA6
:1049C00093F83A2042F0200283F83A2093F84620E8
:1049D00042F0200283F8462093F8522042F0200251
:1049E00083F85220A6E7154B93F83A2062F07F0235
:1049F00083F83A2093F8462062F07F0283F846203D
:104A000093F8522062F07F0283F85220AAE70B4B02
:104A100093F83A2042F0100283F83A2093F84620A7
:104A200042F0100283F8462093F8522042F0100220
:104A300083F85220704700BF5414002068130020F0
:104A4000534B93F82230012B09D0514B93F825306A
:104A5000012B24D04E4B9B7C012B40D070474D4BFB
:104A600093F83B0040F0800083F83B0093F8471038
:104A700041F0800183F8471093F8532042F0800200
:104A800083F8532040F0200083F83B0041F02001E0
:104A900083F8471042F0200283F85320D5E73D4BBE
:104AA00093F83B0040F0020083F83B0093F8471076
:104AB00041F0020183F8471093F8532042F00202BC
:104AC00083F8532040F0010083F83B0041F00101DE
:104AD00083F8471042F0010283F85320BAE72C4BC9
:104AE00093F86230012B2BD02A4B93F83B2022F015
:104AF000200283F83B2093F8472022F0200283F81D
:104B0000472093F8532022F0200283F85320204BB3
:104B100093F86530012B27D01E4B93F83B2022F0F1
:104B2000010283F83B2093F8472022F0010283F82A
:104B3000472093F8532022F0010283F853208DE799
:104B4000144B93F83B2042F0200283F83B2093F86B
:104B5000472042F0200283F8472093F8532042F088
:104B6000200283F85320D2E70A4B93F83B2042F00F
:104B7000010283F83B2093F8472042F0010283F8BA
:104B8000472093F8532042F0010283F853207047E6
:104B90005414002068130020964B93F86A30012BC0
:104BA00000F0B080944B93F83C2022F0200283F870
:104BB0003C2093F8482022F0200283F8482093F804
:104BC000542022F0200283F854208C4B93F820309C
:104BD000012B00F0AB80884B93F83C2022F01002B0
:104BE00083F83C2093F8482022F0100283F84820F4
:104BF00093F8542022F0100283F854207D4B5B7808
:104C0000F3B97D4B93F83C0040F0200083F83C0062
:104C100093F8481041F0200183F8481093F854208D
:104C200042F0200283F8542040F0100083F83C004A
:104C300041F0100183F8481042F0100283F854202C
:104C40006C4B93F86930012B00F084806A4B93F829
:104C50003C2022F0400283F83C2093F8482022F0C8
:104C6000400283F8482093F8542022F0400283F851
:104C70005420604B93F82D30012B7FD05E4B93F87E
:104C80003C2002F07F0283F83C2093F8482002F099
:104C90007F0283F8482093F8542002F07F0283F8C3
:104CA0005420544B93F86B30012B7BD0524B93F82C
:104CB0003C2022F0020283F83C2093F8482022F0A6
:104CC000020283F8482093F8542022F0020283F86D
:104CD0005420484B93F86C30012B77D0464B93F817
:104CE0003C2022F0010283F83C2093F8482022F077
:104CF000010283F8482093F8542022F0010283F83F
:104D0000542070473C4B93F83C2042F0200283F83B
:104D10003C2093F8482042F0200283F8482093F882
:104D2000542042F0200283F854204EE7324B93F88F
:104D30003C2042F0100283F83C2093F8482042F0D7
:104D4000100283F8482093F8542042F0100283F8B0
:104D5000542053E7284B93F83C2042F0400283F85C
:104D60003C2093F8482042F0400283F8482093F812
:104D7000542042F0400283F854207AE71E4B93F807
:104D80003C2062F07F0283F83C2093F8482062F0D8
:104D90007F0283F8482093F8542062F07F0283F862
:104DA00054207EE7144B93F83C2042F0020283F833
:104DB0003C2093F8482042F0020283F8482093F800
:104DC000542042F0020283F8542082E70A4B93F801
:104DD0003C2042F0010283F83C2093F8482042F046
:104DE000010283F8482093F8542042F0010283F82E
:104DF000542070475414002068130020600E0020D7
:104E00002C4B93F86130012B2BD02B4B93F83D208A
:104E100022F0400283F83D2093F8492022F040021E
:104E200083F8492093F8552022F0400283F855205A
:104E3000204B93F83930012B27D01F4B93F83D209E
:104E400002F07F0283F83D2093F8492002F07F02B0
:104E500083F8492093F8552002F07F0283F855200B
:104E60007047154B93F83D2042F0400283F83D20F7
:104E700093F8492042F0400283F8492093F85520E6
:104E800042F0400283F85520D2E70B4B93F83D20C7
:104E900062F07F0283F83D2093F8492062F07F02A0
:104EA00083F8492093F8552062F07F0283F855205B
:104EB000704700BF5414002068130020244B93F85F
:104EC0003030012B18D0224B93F86030012B2BD0BF
:104ED000204B93F8412022F0200283F8412093F8E0
:104EE0004D2022F0200283F84D2093F8592022F023
:104EF000200283F859207047164B93F8412062F046
:104F00007F0283F8412093F84D2062F07F0283F8FE
:104F10004D2093F8592062F07F0283F859200C4B02
:104F2000002283F83020CEE70A4B93F8412042F06C
:104F3000200283F8412093F84D2042F0200283F8AC
:104F40004D2093F8592042F0200283F859207047F1
:104F5000541400206813002008B5FFF7BBFCFFF7CE
:104F60006FFDFFF719FEFFF74BFFFFF7A7FF08BD27
:104F700010B46B4B9B7C002B40F08280694B1A8FE6
:104F800042F040021A87B3F8442042F04002A3F8EE
:104F90004420B3F8502042F04002A3F85020614B67
:104FA00093F8522093F95230002B7BDA5D49B1F827
:104FB000503043F02003A1F850305A4B93F853106F
:104FC00093F95330002B75DA5648B0F8503043F05F
:104FD0001003A0F85030534B93F8543013F0100FD7
:104FE00070D0504CB4F8500040F00800A4F85000C5
:104FF0004C4890F8550000286CD04A4CB4F850004A
:1050000040F00400A4F85000002A6BD04548B0F8E6
:1050100050206FEA42426FEA5242A0F85020002925
:1050200068D04049B1F8502042F48042A1F85020A5
:10503000002B67D03B4AB2F8503043F40053A2F83B
:105040005030384A138F43F400631387B2F844306A
:1050500043F40063A2F84430B2F8503043F40063E4
:105060009BB2A2F8503092F8592012F0F30F51D0B1
:1050700043F480632B4AA2F850305DF8044B70472C
:10508000284B1A8F22F040021A87B3F8442022F0EE
:105090004002A3F84420B3F8502022F04002A3F8C5
:1050A00050207CE71F49B1F8503023F02003A1F8CD
:1050B000503082E71B48B0F8503023F01003A0F8BE
:1050C000503088E7174CB4F8500020F00800A4F8DE
:1050D00050008DE7134CB4F8500020F00400A4F801
:1050E000500091E70F48B0F85020C2F30E02A0F82C
:1050F000502094E70B49B1F8502022F48042A1F8E7
:10510000502095E7074AB2F8503023F40053A2F834
:10511000503096E723F48063024AA2F85030ACE79F
:10512000541400206813002030B4944B93F83A10C4
:1051300093F93A30002B80F2B180904A138F43F0FC
:10514000200313878D4B93F8462093F94630002BAC
:1051500080F2AA808948B0F8443043F02003A0F8D8
:105160004430002900F0A88084490B8F6FEA434344
:105170006FEA53430B87002A00F0A4807F4AB2F8FD
:1051800044306FEA43436FEA5343A2F844307B4B09
:1051900093F83B0093F93B30002B80F29B80774AD9
:1051A000138F43F010031387744B93F8471093F950
:1051B0004730002B80F29480704AB2F8443043F0BC
:1051C0001003A2F844306D4B93F83C2012F0100FFE
:1051D00000F08E801C461B8F43F008032387674B2B
:1051E00093F8483013F0100F00F08880634DB5F845
:1051F000444044F00804A5F84440604C94F83D4015
:10520000002C00F083805D4D2C8F44F004042C872B
:105210005A4C94F84940002C7ED0584CB4F844C005
:105220004CF0040CA4F844C000287DD0534C208FCF
:1052300040F48040208700297CD05048B0F84410CA
:1052400041F48041A0F84410002A7BD04B490A8FDA
:1052500042F400520A87002B7AD0484AB2F8443010
:1052600043F40053A2F84430444B93F8413013F018
:10527000F30F75D0414A138F43F4806313873F4B7C
:1052800093F84D3013F0F30F70D03C4AB2F844302D
:1052900043F48063A2F8443030BC7047374A138F20
:1052A00023F0200313874DE73448B0F8443023F04F
:1052B0002003A0F8443054E730490B8FC3F30E03AA
:1052C0000B8758E72D4AB2F84430C3F30E03A2F817
:1052D00044305CE7294A138F23F01003138763E7F8
:1052E000264AB2F8443023F01003A2F844306AE7AB
:1052F000224C238F23F00803238770E71F4DB5F856
:10530000444024F00804A5F8444076E71B4D2C8F58
:1053100024F004042C877BE7184CB4F844C02CF02C
:10532000040CA4F844C07FE7144C208F20F4804084
:10533000208780E71148B0F8441021F48041A0F89C
:10534000441081E70D490A8F22F400520A8782E750
:105350000A4AB2F8443023F40053A2F8443083E7F9
:10536000064A138F23F48063138788E7034AB2F851
:10537000443023F48063A2F844308DE768130020A2
:1053800008B5FFF7E9FDFFF7F3FDFFF7CDFE08BD18
:105390001D4B5B78012B10D01C4A9368013393603E
:1053A00013F07F4F02D0134600229A6072B6174B5B
:1053B0009A68174B9A6062B67047144B1B68124A82
:1053C000B2F8D62003EBD203B3F5004F05D3C3F3F5
:1053D0000E030E494A6801324A609BB20B4A1360C1
:1053E00093680133936013F07F4F02D0134600227D
:1053F0009A6072B6054A1168054B19605168596088
:1054000092689A6062B670475414002050130020CE
:10541000E81300201C4B5B78012B0ED01B4A9368CD
:105420000133936013F07F4F02D0134600229A603D
:10543000164B9A68164B9A607047144B1B68124AB9
:10544000B2F8D62003EBD203B3F5004F05D3C3F374
:105450000E030E494A6801324A609BB20B4A136040
:1054600093680133936013F07F4F02D013460022FC
:105470009A6072B6054A1168054B19605168596007
:1054800092689A6062B67047541400205C13002042
:10549000F413002083B2002805DA5B429BB202E0DD
:1054A0005B08013149B2B3F5806F01D30F29F7DDF5
:1054B00001F11002D2B21F2A0AD8002804DB88B2F8
:1054C000C00280B218437047C3F500639BB2F6E791
:1054D00000207047C30AB0F5004F1ED3203B1BB21B
:1054E000C0F30A0210F4806F19D0A2F5006212B264
:1054F000002A16DB1046591A06D0002913DD400099
:10550000013909B20029FAD120F4FF4323F07F03C7
:1055100093B9002A0DDB00B270471BB2E0E712B26C
:10552000E6E75042E7E74008013109B20029FAD125
:10553000EAE7404200B270470020704741400B0943
:1055400001F00F01024AD35C024A505C5840704798
:1055500058A6000868A60008034B02221A70034BE5
:1055600090221A70704700BF4C1300205C1200207C
:10557000034B02221A70034B17221A70704700BFA8
:105580004C1300205C1200200023194604E0012285
:105590009A4021EA02010133172B09D80B4A1A4419
:1055A00092F8F820002AF2D001229A401143F2E743
:1055B000074B1970C1F307225A70C1F307429A7062
:1055C000090ED970034B05221A707047541400203D
:1055D0005C1200204C1300201E4B5B787A33DBB248
:1055E000012B16D91C4B00221A701C4B93F83E203D
:1055F00062F07F0283F83E2093F84A2062F07F0237
:1056000083F84A2093F8562062F07F0283F85620F0
:105610007047114B07221A70114B05221A70012294
:105620005A7000229A70DA701A715A710B4B93F803
:105630003E2002F07F0283F83E2093F84A2002F0D9
:105640007F0283F84A2093F8562002F07F0283F805
:1056500056207047C41100204C130020681300200E
:105660005C120020034B02221A70034B90221A7026
:10567000704700BF4C1300205C120020044B032233
:105680001A70044B1B69044A13701B0A537070474D
:105690004C130020681300205C120020084B0622E7
:1056A0001A70084B04221A70002305E05A1C0649A0
:1056B000C95C044B9954D3B2032BF7D9704700BF90
:1056C0004C1300205C12002098A60008064B022212
:1056D0001A70064BDB69FF2B00D07047034BB3F801
:1056E0005020034B1A70F8E74C1300206813002079
:1056F0005C120020074B03221A70074BDB69FF2B5B
:1057000000D07047044BB3F85030044A13701B0AA2
:105710005370F6E74C130020681300205C12002041
:10572000064BDB69FF2B03D0054B02221A70704732
:10573000024B93F85220034B1A70F5E768130020D0
:105740004C1300205C120020064BDB69FF2B03D0BA
:10575000054B02221A707047024B93F85320034BFB
:105760001A70F5E7681300204C1300205C1200202B
:10577000064BDB69FF2B03D0054B02221A707047E2
:10578000024B93F85420034B1A70F5E7681300207E
:105790004C1300205C120020064BDB69FF2B03D06A
:1057A000054B02221A707047024B93F85520034BA9
:1057B0001A70F5E7681300204C1300205C120020DB
:1057C0000A4B5B7833B90A4B00221A70094B02224C
:1057D0001A707047084B1B7F012B03D0044B8022AB
:1057E0001A70F3E7024B20221A70EFE754140020DE
:1057F0005C1200204C130020600E0020064BDB6979
:10580000FF2B03D0054B02221A707047024B93F80E
:105810005920034B1A70F5E7681300204C13002041
:105820005C120020034B02221A70034B22221A70D2
:10583000704700BF4C1300205C120020084B092267
:105840001A70084B07221A70002305E05A1C0649FB
:10585000C95C044B9954D3B2062BF7D9704700BFEB
:105860004C1300205C1200207CA60008084B0E227E
:105870001A70084B0C221A70002305E05A1C0649C6
:10588000C95C044B9954D3B20B2BF7D9704700BFB6
:105890004C1300205C1200208CA60008084B062246
:1058A0001A70084B04221A70002305E05A1C06499E
:1058B000C95C044B9954D3B2032BF7D9704700BF8E
:1058C0004C1300205C12002078A60008084B072229
:1058D0001A70084B05221A70002305E05A1C06496D
:1058E000C95C044B9954D3B2042BF7D9704700BF5D
:1058F0004C1300205C12002084A60008044B0322F5
:105900001A70044BCC221A7016225A70704700BFCE
:105910004C1300205C120020044B03221A70044B2D
:1059200033221A7019225A70704700BF4C1300209E
:105930005C120020074B02221A70074B5B7C012B84
:1059400003D0064B22221A707047044B11221A70A2
:10595000704700BF4C130020541400205C1200203C
:10596000034B02221A70034B01221A70704700BFCA
:105970004C1300205C120020064B02221A70064BCA
:1059800093F83430012B03D00022044B1A70704777
:105990000122FAE74C130020E81000205C120020DE
:1059A000064B03221A7030225A70054A12789A70F8
:1059B0002E22DA70034B05221A7070475C12002009
:1059C000600E00204C1300202A4B9A78597801EB86
:1059D000022189B21B78022B16D0274B00221A70A5
:1059E000264B93F83E2042F0400283F83E2093F885
:1059F0004A2042F0400283F84A2093F8562042F0B1
:105A0000400283F8562070471D4BA3FB0131C1F3C0
:105A10004711132917D8184B24221A70194B222228
:105A20001A7000220CE0501C01EBC1034FEA830CFA
:105A3000154B6344134493F82420124B1A54C2B2FA
:105A4000212AF0D970470C4B00221A700B4B93F8A7
:105A50003E2042F0400283F83E2093F84A2042F074
:105A6000400283F84A2093F8562042F0400283F81F
:105A700056207047C41100204C13002068130020EA
:105A8000F1F0F0F05C1200202C0400200A4B0522FB
:105A90001A700A4B04221A70094A91685970916869
:105AA000C1F3072199709168C1F30741D9709268D9
:105AB000120E1A71704700BF4C1300205C120020B8
:105AC0002C040020084B04221A70084B03221A7081
:105AD000074A516859705168C1F30721997052689B
:105AE000C2F30742DA7070474C1300205C120020AA
:105AF0002C040020014B00221A7070474C13002028
:105B00001D4B03221A701D4B1B78012B17D01C4B09
:105B1000FF221A705A701B4B93F83E2062F07F02EE
:105B200083F83E2093F84A2062F07F0283F84A20EF
:105B300093F8562062F07F0283F856207047104A8F
:105B400013700E4B5978104B03EBC1035B78537005
:105B50000C4B93F83E2002F07F0283F83E2093F82E
:105B60004A2002F07F0283F84A2093F8562002F080
:105B70007F0283F8562070474C130020C411002088
:105B80005C120020681300209CA6000808B50B4B8F
:105B9000186820F07F4020F0FF0038B9084B1870DB
:105BA000000A5870074B03221A7008BD6FF00401F9
:105BB000B3F9C800FFF76EFCF0E700BF54140020F3
:105BC0005C1200204C13002008B50B4B186820F025
:105BD0007F4020F0FF0038B9084B1870000A587059
:105BE000074B03221A7008BD6FF00901B3F9CA0010
:105BF000FFF750FCF0E700BF541400205C120020B7
:105C00004C13002008B56FF00501064BB3F9E00016
:105C1000FFF740FC044B1870000A5870034B032236
:105C20001A7008BD541400205C1200204C13002090
:105C300008B56FF00801064BB3F9CE00FFF72AFC58
:105C4000044B1870000A5870034B03221A7008BDE9
:105C5000541400205C1200204C13002008B56FF093
:105C60000601064BB3F9D200FFF714FC044B187081
